{
  "contractName": "TicketOwnership",
  "abi": [
    {
      "constant": false,
      "inputs": [
        {
          "name": "_nTickets",
          "type": "uint8"
        }
      ],
      "name": "buyTicket",
      "outputs": [],
      "payable": true,
      "stateMutability": "payable",
      "type": "function"
    },
    {
      "constant": true,
      "inputs": [],
      "name": "name",
      "outputs": [
        {
          "name": "",
          "type": "string"
        }
      ],
      "payable": false,
      "stateMutability": "view",
      "type": "function"
    },
    {
      "constant": true,
      "inputs": [],
      "name": "ticketPrice",
      "outputs": [
        {
          "name": "",
          "type": "uint256"
        }
      ],
      "payable": false,
      "stateMutability": "view",
      "type": "function"
    },
    {
      "constant": false,
      "inputs": [
        {
          "name": "_ticketPrice",
          "type": "uint256"
        }
      ],
      "name": "setTicketPrice",
      "outputs": [],
      "payable": false,
      "stateMutability": "nonpayable",
      "type": "function"
    },
    {
      "constant": true,
      "inputs": [
        {
          "name": "",
          "type": "address"
        },
        {
          "name": "",
          "type": "uint256"
        }
      ],
      "name": "ownerToTickets",
      "outputs": [
        {
          "name": "",
          "type": "uint256"
        }
      ],
      "payable": false,
      "stateMutability": "view",
      "type": "function"
    },
    {
      "constant": true,
      "inputs": [
        {
          "name": "",
          "type": "uint256"
        }
      ],
      "name": "ticketToOwner",
      "outputs": [
        {
          "name": "",
          "type": "address"
        }
      ],
      "payable": false,
      "stateMutability": "view",
      "type": "function"
    },
    {
      "constant": true,
      "inputs": [],
      "name": "ipfsMetaData",
      "outputs": [
        {
          "name": "",
          "type": "string"
        }
      ],
      "payable": false,
      "stateMutability": "view",
      "type": "function"
    },
    {
      "constant": true,
      "inputs": [],
      "name": "maxTicketsPerPerson",
      "outputs": [
        {
          "name": "",
          "type": "uint8"
        }
      ],
      "payable": false,
      "stateMutability": "view",
      "type": "function"
    },
    {
      "constant": false,
      "inputs": [],
      "name": "kill",
      "outputs": [],
      "payable": false,
      "stateMutability": "nonpayable",
      "type": "function"
    },
    {
      "constant": true,
      "inputs": [],
      "name": "owner",
      "outputs": [
        {
          "name": "",
          "type": "address"
        }
      ],
      "payable": false,
      "stateMutability": "view",
      "type": "function"
    },
    {
      "constant": true,
      "inputs": [],
      "name": "maxTickets",
      "outputs": [
        {
          "name": "",
          "type": "uint32"
        }
      ],
      "payable": false,
      "stateMutability": "view",
      "type": "function"
    },
    {
      "constant": false,
      "inputs": [
        {
          "name": "_ipfsMetaData",
          "type": "string"
        }
      ],
      "name": "setIpfsMetaData",
      "outputs": [],
      "payable": false,
      "stateMutability": "nonpayable",
      "type": "function"
    },
    {
      "constant": true,
      "inputs": [],
      "name": "soldTickets",
      "outputs": [
        {
          "name": "",
          "type": "uint32"
        }
      ],
      "payable": false,
      "stateMutability": "view",
      "type": "function"
    },
    {
      "constant": false,
      "inputs": [],
      "name": "startSale",
      "outputs": [],
      "payable": false,
      "stateMutability": "nonpayable",
      "type": "function"
    },
    {
      "constant": false,
      "inputs": [
        {
          "name": "_nTickets",
          "type": "uint32"
        }
      ],
      "name": "addMoreTickets",
      "outputs": [],
      "payable": false,
      "stateMutability": "nonpayable",
      "type": "function"
    },
    {
      "constant": false,
      "inputs": [],
      "name": "stopSale",
      "outputs": [],
      "payable": false,
      "stateMutability": "nonpayable",
      "type": "function"
    },
    {
      "constant": false,
      "inputs": [
        {
          "name": "newOwner",
          "type": "address"
        }
      ],
      "name": "transferOwnership",
      "outputs": [],
      "payable": false,
      "stateMutability": "nonpayable",
      "type": "function"
    },
    {
      "inputs": [
        {
          "name": "_name",
          "type": "string"
        },
        {
          "name": "_ipfsMetaData",
          "type": "string"
        },
        {
          "name": "_maxTickets",
          "type": "uint32"
        },
        {
          "name": "_maxTicketsPerPerson",
          "type": "uint8"
        },
        {
          "name": "_ticketPrice",
          "type": "uint256"
        }
      ],
      "payable": false,
      "stateMutability": "nonpayable",
      "type": "constructor"
    },
    {
      "anonymous": false,
      "inputs": [
        {
          "indexed": true,
          "name": "_from",
          "type": "address"
        },
        {
          "indexed": true,
          "name": "_to",
          "type": "address"
        },
        {
          "indexed": true,
          "name": "_tokenId",
          "type": "uint256"
        }
      ],
      "name": "Transfer",
      "type": "event"
    },
    {
      "anonymous": false,
      "inputs": [
        {
          "indexed": true,
          "name": "_owner",
          "type": "address"
        },
        {
          "indexed": true,
          "name": "_approved",
          "type": "address"
        },
        {
          "indexed": true,
          "name": "_tokenId",
          "type": "uint256"
        }
      ],
      "name": "Approval",
      "type": "event"
    },
    {
      "anonymous": false,
      "inputs": [
        {
          "indexed": true,
          "name": "_owner",
          "type": "address"
        },
        {
          "indexed": true,
          "name": "_operator",
          "type": "address"
        },
        {
          "indexed": false,
          "name": "_approved",
          "type": "bool"
        }
      ],
      "name": "ApprovalForAll",
      "type": "event"
    },
    {
      "anonymous": false,
      "inputs": [],
      "name": "Sale",
      "type": "event"
    },
    {
      "anonymous": false,
      "inputs": [],
      "name": "SoldOut",
      "type": "event"
    },
    {
      "anonymous": false,
      "inputs": [],
      "name": "Closed",
      "type": "event"
    },
    {
      "anonymous": false,
      "inputs": [
        {
          "indexed": true,
          "name": "previousOwner",
          "type": "address"
        },
        {
          "indexed": true,
          "name": "newOwner",
          "type": "address"
        }
      ],
      "name": "OwnershipTransferred",
      "type": "event"
    },
    {
      "constant": true,
      "inputs": [
        {
          "name": "interfaceID",
          "type": "bytes4"
        }
      ],
      "name": "supportsInterface",
      "outputs": [
        {
          "name": "",
          "type": "bool"
        }
      ],
      "payable": false,
      "stateMutability": "view",
      "type": "function"
    },
    {
      "constant": true,
      "inputs": [
        {
          "name": "_owner",
          "type": "address"
        }
      ],
      "name": "balanceOf",
      "outputs": [
        {
          "name": "",
          "type": "uint256"
        }
      ],
      "payable": false,
      "stateMutability": "view",
      "type": "function"
    },
    {
      "constant": true,
      "inputs": [
        {
          "name": "_tokenId",
          "type": "uint256"
        }
      ],
      "name": "ownerOf",
      "outputs": [
        {
          "name": "",
          "type": "address"
        }
      ],
      "payable": false,
      "stateMutability": "view",
      "type": "function"
    },
    {
      "constant": false,
      "inputs": [
        {
          "name": "_from",
          "type": "address"
        },
        {
          "name": "_to",
          "type": "address"
        },
        {
          "name": "_tokenId",
          "type": "uint256"
        }
      ],
      "name": "safeTransferFrom",
      "outputs": [],
      "payable": true,
      "stateMutability": "payable",
      "type": "function"
    },
    {
      "constant": false,
      "inputs": [
        {
          "name": "_from",
          "type": "address"
        },
        {
          "name": "_to",
          "type": "address"
        },
        {
          "name": "_tokenId",
          "type": "uint256"
        },
        {
          "name": "data",
          "type": "bytes"
        }
      ],
      "name": "safeTransferFrom",
      "outputs": [],
      "payable": true,
      "stateMutability": "payable",
      "type": "function"
    },
    {
      "constant": false,
      "inputs": [
        {
          "name": "_from",
          "type": "address"
        },
        {
          "name": "_to",
          "type": "address"
        },
        {
          "name": "_tokenId",
          "type": "uint256"
        }
      ],
      "name": "transferFrom",
      "outputs": [],
      "payable": true,
      "stateMutability": "payable",
      "type": "function"
    },
    {
      "constant": false,
      "inputs": [
        {
          "name": "_approved",
          "type": "address"
        },
        {
          "name": "_tokenId",
          "type": "uint256"
        }
      ],
      "name": "approve",
      "outputs": [],
      "payable": true,
      "stateMutability": "payable",
      "type": "function"
    },
    {
      "constant": false,
      "inputs": [
        {
          "name": "_operator",
          "type": "address"
        },
        {
          "name": "_approved",
          "type": "bool"
        }
      ],
      "name": "setApprovalForAll",
      "outputs": [],
      "payable": false,
      "stateMutability": "nonpayable",
      "type": "function"
    },
    {
      "constant": true,
      "inputs": [
        {
          "name": "_tokenId",
          "type": "uint256"
        }
      ],
      "name": "getApproved",
      "outputs": [
        {
          "name": "",
          "type": "address"
        }
      ],
      "payable": false,
      "stateMutability": "view",
      "type": "function"
    },
    {
      "constant": true,
      "inputs": [
        {
          "name": "_owner",
          "type": "address"
        },
        {
          "name": "_operator",
          "type": "address"
        }
      ],
      "name": "isApprovedForAll",
      "outputs": [
        {
          "name": "",
          "type": "bool"
        }
      ],
      "payable": false,
      "stateMutability": "view",
      "type": "function"
    },
    {
      "constant": true,
      "inputs": [
        {
          "name": "_owner",
          "type": "address"
        }
      ],
      "name": "ticketsOf",
      "outputs": [
        {
          "name": "",
          "type": "uint256[]"
        }
      ],
      "payable": false,
      "stateMutability": "view",
      "type": "function"
    }
  ],
  "bytecode": "0x60806040523480156200001157600080fd5b50604051620022bc380380620022bc83398101806040528101908080518201929190602001805182019291906020018051906020019092919080519060200190929190805190602001909291905050508484848484336000806101000a81548173ffffffffffffffffffffffffffffffffffffffff021916908373ffffffffffffffffffffffffffffffffffffffff1602179055508460039080519060200190620000be929190620001be565b508360049080519060200190620000d7929190620001be565b5082600560006101000a81548163ffffffff021916908363ffffffff16021790555081600560046101000a81548160ff021916908360ff160217905550806006819055506000600760006101000a81548160ff021916908360038111156200013b57fe5b021790555050505050506001600860006380ac58cd7c0100000000000000000000000000000000000000000000000000000000027bffffffffffffffffffffffffffffffffffffffffffffffffffffffff1916815260200190815260200160002060006101000a81548160ff02191690831515021790555050505050506200026d565b828054600181600116156101000203166002900490600052602060002090601f016020900481019282601f106200020157805160ff191683800117855562000232565b8280016001018555821562000232579182015b828111156200023157825182559160200191906001019062000214565b5b50905062000241919062000245565b5090565b6200026a91905b80821115620002665760008160009055506001016200024c565b5090565b90565b61203f806200027d6000396000f30060806040526004361061016a576000357c0100000000000000000000000000000000000000000000000000000000900463ffffffff16806301ffc9a71461016f578063023697f0146101d357806306fdde03146101f6578063081812fc14610286578063095ea7b3146102f35780631209b1f614610333578063159816501461035e5780631e5174881461038b57806323b872dd146103ec5780632b08e8241461044c57806331657926146104b95780633275e4771461055157806337250ed9146105e157806341c0e1b51461061257806342842e0e146106295780636352211e1461068957806370a08231146106f65780638da5cb5b1461074d5780639b894703146107a4578063a1f535af146107db578063a22cb46514610816578063a31aa84b14610865578063b66a0e5d1461089c578063b88d4fde146108b3578063d8cd57b914610959578063e36b0b371461098c578063e985e9c5146109a3578063f2fde38b14610a1e575b600080fd5b34801561017b57600080fd5b506101b960048036038101908080357bffffffffffffffffffffffffffffffffffffffffffffffffffffffff19169060200190929190505050610a61565b604051808215151515815260200191505060405180910390f35b6101f4600480360381019080803560ff169060200190929190505050610ac9565b005b34801561020257600080fd5b5061020b610d3c565b6040518080602001828103825283818151815260200191508051906020019080838360005b8381101561024b578082015181840152602081019050610230565b50505050905090810190601f1680156102785780820380516001836020036101000a031916815260200191505b509250505060405180910390f35b34801561029257600080fd5b506102b160048036038101908080359060200190929190505050610dda565b604051808273ffffffffffffffffffffffffffffffffffffffff1673ffffffffffffffffffffffffffffffffffffffff16815260200191505060405180910390f35b610331600480360381019080803573ffffffffffffffffffffffffffffffffffffffff16906020019092919080359060200190929190505050610e17565b005b34801561033f57600080fd5b50610348610fbe565b6040518082815260200191505060405180910390f35b34801561036a57600080fd5b5061038960048036038101908080359060200190929190505050610fc4565b005b34801561039757600080fd5b506103d6600480360381019080803573ffffffffffffffffffffffffffffffffffffffff16906020019092919080359060200190929190505050611029565b6040518082815260200191505060405180910390f35b61044a600480360381019080803573ffffffffffffffffffffffffffffffffffffffff169060200190929190803573ffffffffffffffffffffffffffffffffffffffff16906020019092919080359060200190929190505050611059565b005b34801561045857600080fd5b5061047760048036038101908080359060200190929190505050611426565b604051808273ffffffffffffffffffffffffffffffffffffffff1673ffffffffffffffffffffffffffffffffffffffff16815260200191505060405180910390f35b3480156104c557600080fd5b506104fa600480360381019080803573ffffffffffffffffffffffffffffffffffffffff169060200190929190505050611459565b6040518080602001828103825283818151815260200191508051906020019060200280838360005b8381101561053d578082015181840152602081019050610522565b505050509050019250505060405180910390f35b34801561055d57600080fd5b506105666114f0565b6040518080602001828103825283818151815260200191508051906020019080838360005b838110156105a657808201518184015260208101905061058b565b50505050905090810190601f1680156105d35780820380516001836020036101000a031916815260200191505b509250505060405180910390f35b3480156105ed57600080fd5b506105f661158e565b604051808260ff1660ff16815260200191505060405180910390f35b34801561061e57600080fd5b506106276115a1565b005b610687600480360381019080803573ffffffffffffffffffffffffffffffffffffffff169060200190929190803573ffffffffffffffffffffffffffffffffffffffff16906020019092919080359060200190929190505050611636565b005b34801561069557600080fd5b506106b460048036038101908080359060200190929190505050611657565b604051808273ffffffffffffffffffffffffffffffffffffffff1673ffffffffffffffffffffffffffffffffffffffff16815260200191505060405180910390f35b34801561070257600080fd5b50610737600480360381019080803573ffffffffffffffffffffffffffffffffffffffff169060200190929190505050611708565b6040518082815260200191505060405180910390f35b34801561075957600080fd5b5061076261178f565b604051808273ffffffffffffffffffffffffffffffffffffffff1673ffffffffffffffffffffffffffffffffffffffff16815260200191505060405180910390f35b3480156107b057600080fd5b506107b96117b4565b604051808263ffffffff1663ffffffff16815260200191505060405180910390f35b3480156107e757600080fd5b506108146004803603810190808035906020019082018035906020019190919293919293905050506117ca565b005b34801561082257600080fd5b50610863600480360381019080803573ffffffffffffffffffffffffffffffffffffffff16906020019092919080351515906020019092919050505061183b565b005b34801561087157600080fd5b5061087a611977565b604051808263ffffffff1663ffffffff16815260200191505060405180910390f35b3480156108a857600080fd5b506108b161198c565b005b610957600480360381019080803573ffffffffffffffffffffffffffffffffffffffff169060200190929190803573ffffffffffffffffffffffffffffffffffffffff16906020019092919080359060200190929190803590602001908201803590602001908080601f0160208091040260200160405190810160405280939291908181526020018383808284378201915050505050509192919290505050611a39565b005b34801561096557600080fd5b5061098a600480360381019080803563ffffffff169060200190929190505050611a4a565b005b34801561099857600080fd5b506109a1611b0b565b005b3480156109af57600080fd5b50610a04600480360381019080803573ffffffffffffffffffffffffffffffffffffffff169060200190929190803573ffffffffffffffffffffffffffffffffffffffff169060200190929190505050611bb8565b604051808215151515815260200191505060405180910390f35b348015610a2a57600080fd5b50610a5f600480360381019080803573ffffffffffffffffffffffffffffffffffffffff169060200190929190505050611c4c565b005b600060086000837bffffffffffffffffffffffffffffffffffffffffffffffffffffffff19167bffffffffffffffffffffffffffffffffffffffffffffffffffffffff1916815260200190815260200160002060009054906101000a900460ff169050919050565b60008060016003811115610ad957fe5b600760009054906101000a900460ff166003811115610af457fe5b141515610b0057600080fd5b6006548360ff16023410151515610b1657600080fd5b8260ff16600260003373ffffffffffffffffffffffffffffffffffffffff1673ffffffffffffffffffffffffffffffffffffffff16815260200190815260200160002080549050600560049054906101000a900460ff1660ff160310151515610b7e57600080fd5b8260ff166005809054906101000a900463ffffffff16600560009054906101000a900463ffffffff160363ffffffff1610151515610bbb57600080fd5b600090505b8260ff168160ff161015610cda57610bd6611da1565b9150336001600084815260200190815260200160002060006101000a81548173ffffffffffffffffffffffffffffffffffffffff021916908373ffffffffffffffffffffffffffffffffffffffff160217905550600260003373ffffffffffffffffffffffffffffffffffffffff1673ffffffffffffffffffffffffffffffffffffffff16815260200190815260200160002082908060018154018082558091505090600182039060005260206000200160009091929091909150555060058081819054906101000a900463ffffffff168092919060010191906101000a81548163ffffffff021916908363ffffffff160217905550508080600101915050610bc0565b600560009054906101000a900463ffffffff1663ffffffff166005809054906101000a900463ffffffff1663ffffffff16101515610d37576002600760006101000a81548160ff02191690836003811115610d3157fe5b02179055505b505050565b60038054600181600116156101000203166002900480601f016020809104026020016040519081016040528092919081815260200182805460018160011615610100020316600290048015610dd25780601f10610da757610100808354040283529160200191610dd2565b820191906000526020600020905b815481529060010190602001808311610db557829003601f168201915b505050505081565b60006009600083815260200190815260200160002060009054906101000a900473ffffffffffffffffffffffffffffffffffffffff169050919050565b6000610e2282611657565b90508073ffffffffffffffffffffffffffffffffffffffff168373ffffffffffffffffffffffffffffffffffffffff1614151515610e5f57600080fd5b8073ffffffffffffffffffffffffffffffffffffffff163373ffffffffffffffffffffffffffffffffffffffff161480610e9f5750610e9e8133611bb8565b5b1515610eaa57600080fd5b600560049054906101000a900460ff1660ff16600260008573ffffffffffffffffffffffffffffffffffffffff1673ffffffffffffffffffffffffffffffffffffffff16815260200190815260200160002080549050101515610f0c57600080fd5b826009600084815260200190815260200160002060006101000a81548173ffffffffffffffffffffffffffffffffffffffff021916908373ffffffffffffffffffffffffffffffffffffffff160217905550818373ffffffffffffffffffffffffffffffffffffffff168273ffffffffffffffffffffffffffffffffffffffff167f8c5be1e5ebec7d5bd14f71427d1e84f3dd0314c0f7b2291e5b200ac8c7c3b92560405160405180910390a4505050565b60065481565b6000809054906101000a900473ffffffffffffffffffffffffffffffffffffffff1673ffffffffffffffffffffffffffffffffffffffff163373ffffffffffffffffffffffffffffffffffffffff1614151561101f57600080fd5b8060068190555050565b60026020528160005260406000208181548110151561104457fe5b90600052602060002001600091509150505481565b60006110653383611ead565b151561107057600080fd5b600073ffffffffffffffffffffffffffffffffffffffff168373ffffffffffffffffffffffffffffffffffffffff16141515156110ac57600080fd5b60006009600084815260200190815260200160002060006101000a81548173ffffffffffffffffffffffffffffffffffffffff021916908373ffffffffffffffffffffffffffffffffffffffff160217905550600090505b6001600260008673ffffffffffffffffffffffffffffffffffffffff1673ffffffffffffffffffffffffffffffffffffffff168152602001908152602001600020805490500381101561130a5781600260008673ffffffffffffffffffffffffffffffffffffffff1673ffffffffffffffffffffffffffffffffffffffff1681526020019081526020016000208281548110151561119e57fe5b906000526020600020015414156112fd57600260008573ffffffffffffffffffffffffffffffffffffffff1673ffffffffffffffffffffffffffffffffffffffff1681526020019081526020016000206001600260008773ffffffffffffffffffffffffffffffffffffffff1673ffffffffffffffffffffffffffffffffffffffff168152602001908152602001600020805490500381548110151561124057fe5b9060005260206000200154600260008673ffffffffffffffffffffffffffffffffffffffff1673ffffffffffffffffffffffffffffffffffffffff1681526020019081526020016000208281548110151561129757fe5b9060005260206000200181905550600260008573ffffffffffffffffffffffffffffffffffffffff1673ffffffffffffffffffffffffffffffffffffffff1681526020019081526020016000208054809190600190036112f79190611f42565b5061130a565b8080600101915050611104565b826001600084815260200190815260200160002060006101000a81548173ffffffffffffffffffffffffffffffffffffffff021916908373ffffffffffffffffffffffffffffffffffffffff160217905550600260008473ffffffffffffffffffffffffffffffffffffffff1673ffffffffffffffffffffffffffffffffffffffff168152602001908152602001600020829080600181540180825580915050906001820390600052602060002001600090919290919091505550818373ffffffffffffffffffffffffffffffffffffffff168573ffffffffffffffffffffffffffffffffffffffff167fddf252ad1be2c89b69c2b068fc378daa952ba7f163c4a11628f55a4df523b3ef60405160405180910390a450505050565b60016020528060005260406000206000915054906101000a900473ffffffffffffffffffffffffffffffffffffffff1681565b6060600260008373ffffffffffffffffffffffffffffffffffffffff1673ffffffffffffffffffffffffffffffffffffffff1681526020019081526020016000208054806020026020016040519081016040528092919081815260200182805480156114e457602002820191906000526020600020905b8154815260200190600101908083116114d0575b50505050509050919050565b60048054600181600116156101000203166002900480601f0160208091040260200160405190810160405280929190818152602001828054600181600116156101000203166002900480156115865780601f1061155b57610100808354040283529160200191611586565b820191906000526020600020905b81548152906001019060200180831161156957829003601f168201915b505050505081565b600560049054906101000a900460ff1681565b6000809054906101000a900473ffffffffffffffffffffffffffffffffffffffff1673ffffffffffffffffffffffffffffffffffffffff163373ffffffffffffffffffffffffffffffffffffffff161415156115fc57600080fd5b6000809054906101000a900473ffffffffffffffffffffffffffffffffffffffff1673ffffffffffffffffffffffffffffffffffffffff16ff5b6116528383836020604051908101604052806000815250611a39565b505050565b6000806001600084815260200190815260200160002060009054906101000a900473ffffffffffffffffffffffffffffffffffffffff169050600073ffffffffffffffffffffffffffffffffffffffff168173ffffffffffffffffffffffffffffffffffffffff16141515156116cc57600080fd5b6001600084815260200190815260200160002060009054906101000a900473ffffffffffffffffffffffffffffffffffffffff16915050919050565b60008073ffffffffffffffffffffffffffffffffffffffff168273ffffffffffffffffffffffffffffffffffffffff161415151561174557600080fd5b600260008373ffffffffffffffffffffffffffffffffffffffff1673ffffffffffffffffffffffffffffffffffffffff168152602001908152602001600020805490509050919050565b6000809054906101000a900473ffffffffffffffffffffffffffffffffffffffff1681565b600560009054906101000a900463ffffffff1681565b6000809054906101000a900473ffffffffffffffffffffffffffffffffffffffff1673ffffffffffffffffffffffffffffffffffffffff163373ffffffffffffffffffffffffffffffffffffffff1614151561182557600080fd5b818160049190611836929190611f6e565b505050565b3373ffffffffffffffffffffffffffffffffffffffff168273ffffffffffffffffffffffffffffffffffffffff161415151561187657600080fd5b80600a60003373ffffffffffffffffffffffffffffffffffffffff1673ffffffffffffffffffffffffffffffffffffffff16815260200190815260200160002060008473ffffffffffffffffffffffffffffffffffffffff1673ffffffffffffffffffffffffffffffffffffffff16815260200190815260200160002060006101000a81548160ff0219169083151502179055508173ffffffffffffffffffffffffffffffffffffffff163373ffffffffffffffffffffffffffffffffffffffff167f17307eab39ab6107e8899845ad3d59bd9653f200f220920489ca2b5937696c3183604051808215151515815260200191505060405180910390a35050565b6005809054906101000a900463ffffffff1681565b6000809054906101000a900473ffffffffffffffffffffffffffffffffffffffff1673ffffffffffffffffffffffffffffffffffffffff163373ffffffffffffffffffffffffffffffffffffffff161415156119e757600080fd5b6001600760006101000a81548160ff02191690836003811115611a0657fe5b02179055507fb78f9de73ca0069a2bfc6463635707582269ea0b35047249542a65a7116dbee660405160405180910390a1565b611a44848484611059565b50505050565b6000809054906101000a900473ffffffffffffffffffffffffffffffffffffffff1673ffffffffffffffffffffffffffffffffffffffff163373ffffffffffffffffffffffffffffffffffffffff16141515611aa557600080fd5b63ffffffff81600560009054906101000a900463ffffffff160163ffffffff1611151515611ad257600080fd5b80600560008282829054906101000a900463ffffffff160192506101000a81548163ffffffff021916908363ffffffff16021790555050565b6000809054906101000a900473ffffffffffffffffffffffffffffffffffffffff1673ffffffffffffffffffffffffffffffffffffffff163373ffffffffffffffffffffffffffffffffffffffff16141515611b6657600080fd5b6003600760006101000a81548160ff02191690836003811115611b8557fe5b02179055507f1cdde67b72a90f19919ac732a437ac2f7a10fc128d28c2a6e525d89ce5cd9d3a60405160405180910390a1565b6000600a60008473ffffffffffffffffffffffffffffffffffffffff1673ffffffffffffffffffffffffffffffffffffffff16815260200190815260200160002060008373ffffffffffffffffffffffffffffffffffffffff1673ffffffffffffffffffffffffffffffffffffffff16815260200190815260200160002060009054906101000a900460ff16905092915050565b6000809054906101000a900473ffffffffffffffffffffffffffffffffffffffff1673ffffffffffffffffffffffffffffffffffffffff163373ffffffffffffffffffffffffffffffffffffffff16141515611ca757600080fd5b600073ffffffffffffffffffffffffffffffffffffffff168173ffffffffffffffffffffffffffffffffffffffff1614151515611ce357600080fd5b8073ffffffffffffffffffffffffffffffffffffffff166000809054906101000a900473ffffffffffffffffffffffffffffffffffffffff1673ffffffffffffffffffffffffffffffffffffffff167f8be0079c531659141344cd1fd0a4f28419497f9722a3daafe3b4186f6b6457e060405160405180910390a3806000806101000a81548173ffffffffffffffffffffffffffffffffffffffff021916908373ffffffffffffffffffffffffffffffffffffffff16021790555050565b6000336005809054906101000a900463ffffffff16604051602001808373ffffffffffffffffffffffffffffffffffffffff1673ffffffffffffffffffffffffffffffffffffffff166c010000000000000000000000000281526014018263ffffffff1663ffffffff167c0100000000000000000000000000000000000000000000000000000000028152600401925050506040516020818303038152906040526040518082805190602001908083835b602083101515611e775780518252602082019150602081019050602083039250611e52565b6001836020036101000a038019825116818451168082178552505050505050905001915050604051809103902060019004905090565b600080611eb983611657565b90508073ffffffffffffffffffffffffffffffffffffffff168473ffffffffffffffffffffffffffffffffffffffff161480611f2857508373ffffffffffffffffffffffffffffffffffffffff16611f1084610dda565b73ffffffffffffffffffffffffffffffffffffffff16145b80611f395750611f388185611bb8565b5b91505092915050565b815481835581811115611f6957818360005260206000209182019101611f689190611fee565b5b505050565b828054600181600116156101000203166002900490600052602060002090601f016020900481019282601f10611faf57803560ff1916838001178555611fdd565b82800160010185558215611fdd579182015b82811115611fdc578235825591602001919060010190611fc1565b5b509050611fea9190611fee565b5090565b61201091905b8082111561200c576000816000905550600101611ff4565b5090565b905600a165627a7a723058203c321b98970854673e9df43e7d540fcfdaf1af33a2e7f474dcabb8388d7b8f170029",
  "source": "pragma solidity ^0.4.24;\r\n\r\n// Sources: \r\n// - Open Zeppelin: https://github.com/OpenZeppelin/openzeppelin-solidity/blob/master/contracts/token/ERC721/ERC721BasicToken.sol\r\n// - CryptoKitties\r\n// - CryptoZombies\r\n\r\n\r\nimport \"./ERC721.sol\";\r\nimport \"./ERC165.sol\";\r\nimport \"./TicketSale.sol\";\r\n\r\nimport \"zeppelin/math/SafeMath.sol\";\r\n\r\n\r\n/** @title Ticket Ownership\r\n  * This contract is the one that is deployed for this dApp.\r\n  * It inherits TicketSale in order to deploye all the logic,\r\n  * and it adds ERC721 nature to the ticket tokens. In order\r\n  * for that to happen, ERC165 is also necessary.\r\n  * \r\n  * The documentation for all the implemented methods in this\r\n  * file are in its respective interfaces contracts\r\n  */\r\ncontract TicketOwnership is TicketSale, ERC721, ERC165 {\r\n\r\n\tusing SafeMath for uint256;\r\n\r\n\tmapping (bytes4 => bool) internal supportedInterfaces;\r\n\tmapping (uint256 => address) tokenApprovals;\r\n\tmapping (address => mapping (address => bool)) internal operatorApprovals;\r\n\r\n\t// TicketSale modifier to inherit the contract\r\n\tconstructor(\r\n\t\tstring _name, \r\n\t\tstring _ipfsMetaData, \r\n\t\tuint32 _maxTickets, \r\n\t\tuint8 _maxTicketsPerPerson, \r\n\t\tuint256 _ticketPrice\r\n\t) public TicketSale(_name, _ipfsMetaData, _maxTickets, _maxTicketsPerPerson, _ticketPrice) { \r\n\t\t//ERC165 compliant: supports ER721 interface\r\n\t\t//supportedInterfaces[this.supportsInterface.selector] = true;\r\n\t\tsupportedInterfaces[0x80ac58cd] = true;\r\n\t\t\r\n\t}\r\n\r\n\tfunction supportsInterface(bytes4 interfaceID) external view returns (bool){\r\n\t\treturn supportedInterfaces[interfaceID];\r\n\t}\r\n\r\n\r\n\tevent Transfer(address indexed _from, address indexed _to, uint256 indexed _tokenId);\r\n\tevent Approval(address indexed _owner, address indexed _approved, uint256 indexed _tokenId);\r\n\tevent ApprovalForAll(address indexed _owner, address indexed _operator, bool _approved);\r\n\r\n\tfunction balanceOf(address _owner) external view returns (uint256) {\r\n\t\trequire(_owner != address(0));\r\n\t\treturn ownerToTickets[_owner].length;\r\n\t}\r\n\r\n\tfunction ownerOf(uint256 _tokenId) public view returns (address) {\r\n\t\taddress ticketOwner = ticketToOwner[_tokenId];\r\n    \trequire(ticketOwner != address(0));\r\n\t\treturn ticketToOwner[_tokenId];\r\n\t}\r\n\r\n\tfunction safeTransferFrom(address _from, address _to, uint256 _tokenId, bytes data) public payable {\r\n\t\ttransferFrom(_from, _to, _tokenId);\r\n\t}\r\n\r\n\tfunction safeTransferFrom(address _from, address _to, uint256 _tokenId) public payable {\r\n\t\tsafeTransferFrom(_from, _to, _tokenId, \"\");\r\n\t}\r\n\r\n\tfunction transferFrom(address _from, address _to, uint256 _tokenId) public payable {\r\n\t\trequire(isApprovedOrOwner(msg.sender, _tokenId));\r\n\t    require(_to != address(0));\r\n\r\n\t    tokenApprovals[_tokenId] = address(0);\r\n\r\n\t    // Delete token\r\n\t    for (uint i = 0; i < ownerToTickets[_from].length-1; i++){\r\n            if (ownerToTickets[_from][i] == _tokenId) {\r\n            \t/*// delete token\r\n            \tdelete ownerToTickets[_from][i];\r\n            \t// fill the empty spot with the last element\r\n            \townerToTickets[_from][i] = ownerToTickets[_from][ownerToTickets[_from].length-1];\r\n            \t// delete last element\r\n            \tdelete ownerToTickets[_from][ownerToTickets[_from].length-1];\r\n            \t// stop loop, we already found the ticket to delete\r\n            \townerToTickets[_from].length--;\r\n            \t*/\r\n            \t// BETTER WAY\r\n            \t// Assign last token to the token we are transferring\r\n            \townerToTickets[_from][i] = ownerToTickets[_from][ownerToTickets[_from].length-1];\r\n            \t// Delete duplicate token at the end\r\n            \townerToTickets[_from].length--;\r\n            \tbreak;\r\n            }\r\n        }\r\n\r\n    \t// Add token\r\n\t    ticketToOwner[_tokenId] = _to;\r\n\t\townerToTickets[_to].push(_tokenId);\r\n\r\n\t    emit Transfer(_from, _to, _tokenId);\r\n\t}\r\n\r\n\tfunction approve(address _approved, uint256 _tokenId) external payable {\r\n\t\taddress token_owner = ownerOf(_tokenId);\r\n\t    require(_approved != token_owner);\r\n\t    require(msg.sender == token_owner || isApprovedForAll(token_owner, msg.sender));\r\n\r\n\t    // The receiver of the token can't possess more tokens than maxTicketsPerPerson\r\n\t    require(ownerToTickets[_approved].length < maxTicketsPerPerson);\r\n\r\n\t    tokenApprovals[_tokenId] = _approved;\r\n\t    emit Approval(token_owner, _approved, _tokenId);\r\n\t}\r\n\r\n\tfunction setApprovalForAll(address _operator, bool _approved) external {\r\n\t\trequire(_operator != msg.sender);\r\n    \toperatorApprovals[msg.sender][_operator] = _approved;\r\n   \t\temit ApprovalForAll(msg.sender, _operator, _approved);\r\n\t}\r\n\r\n\tfunction getApproved(uint256 _tokenId) public view returns (address) {\r\n\t\treturn tokenApprovals[_tokenId];\r\n\t}\r\n\r\n\tfunction isApprovedForAll(address _owner, address _operator) public view returns (bool) {\r\n\t\treturn operatorApprovals[_owner][_operator];\r\n\t}\r\n\r\n\t/**\r\n\t * @dev Returns whether the given spender can transfer a given token ID\r\n\t * @param _spender address of the spender to query\r\n\t * @param _tokenId uint256 ID of the token to be transferred\r\n\t * @return bool whether the msg.sender is approved for the given token ID,\r\n\t *  is an operator of the owner, or is the owner of the token\r\n    */\r\n  \tfunction isApprovedOrOwner(address _spender, uint256 _tokenId) internal view returns (bool) {\r\n\t    address token_owner = ownerOf(_tokenId);\r\n\t    return (\r\n\t      _spender == token_owner ||\r\n\t      getApproved(_tokenId) == _spender ||\r\n\t      isApprovedForAll(token_owner, _spender)\r\n\t    );\r\n  \t}\r\n\r\n  \tfunction ticketsOf(address _owner) external view returns (uint256[]) {\r\n  \t\treturn ownerToTickets[_owner];\r\n  \t}\r\n\r\n}",
  "sourcePath": "/mnt/c/Users/pacoa/consensys-academy/dtickets/contracts/TicketOwnership.sol",
  "compiler": {
    "name": "solc",
    "version": "0.4.24+commit.e67f0147.Emscripten.clang"
  },
  "schemaVersion": "2.0.1",
  "updatedAt": "2018-08-28T01:45:34.998Z"
}